:020000041000EA
:1000000000B5324B212058609868022188439860DF
:10001000D860186158612E4B002199600221596106
:100020000121F02299502B49196001219960352056
:1000300000F044F80222904214D00621196600F024
:1000400034F8196E01211966002018661A6600F04E
:100050002CF8196E196E196E052000F02FF8012189
:100060000842F9D1002199601B49196000215960AB
:100070001A491B48016001219960EB211966A021F2
:10008000196600F012F800219960164914480160C1
:100090000121996001BC002800D000471248134993
:1000A000086003C880F30888084703B5996A0420EC
:1000B0000142FBD001200142F8D103BD02B5186610
:1000C0001866FFF7F2FF186E186E02BD00000240BE
:1000D000000000180000070000035F00212200005C
:1000E000F4000018222000A00001001008ED00E03C
:1000F00000000000000000000000000074B24E7A12
:1001000000200420F7010010CB010010CD010010E9
:10011000C9010010C9010010C9010010C901001077
:10012000C9010010C9010010C9010010CF01001061
:10013000C9010010C9010010D1010010D301001045
:10014000C1010010C1010010C1010010C101001067
:10015000C1010010C1010010C1010010C101001057
:10016000C1010010C1010010C1010010C101001047
:10017000C1010010C1010010C1010010C101001037
:10018000C1010010C1010010C1010010C101001027
:10019000C1010010C1010010C1010010C101001017
:1001A000C1010010C1010010C1010010C101001007
:1001B000C1010010C1010010C1010010C1010010F7
:1001C000EFF30580103800BE00BE00BE00BE00BECA
:1001D00000BE00BEF2EB88719C350010C4350010E3
:1001E0003802001090A31AE71E481F49086006C88D
:1001F00081F3088810471D480068002801D019487D
:10020000F3E70DA40ECC002902D000F012F8F9E7B4
:100210001749184A002000E001C19142FCD116495B
:100220008847164988471649884700BEFDE701C937
:1002300001C29A42FBD37047C4350010C0000020B1
:1002400070060020743B0010000004200000042011
:10025000743B001000100420001004200000000077
:10026000704700000000000008ED00E0000000D032
:1002700070060020780A0020752A0010D1020010B4
:100280006D2A0010F8B5C04610B5064C2378002B37
:1002900007D1054B002B02D0044800E000BF01232A
:1002A000237010BDF0090020000000003034001061
:1002B000044B10B5002B03D00349044800E000BFF5
:1002C00010BDC04600000000F409002030340010CA
:1002D000F0B5ABB002F0DEFC0E2000F085FDD023BF
:1002E00080221B06D2019A62012100220E2000F01A
:1002F0004DFD2422002117A802F08AFB17A800F068
:1003000091F8424B0F2168460193029300F0E2F806
:100310000322022107A800F0B3F9052204210FA847
:1003200000F0AEF907A800F0B7F90FA800F0B4F993
:100330000023202220ADAB54002000212B61FE249D
:10034000002326902791A405280031496B62103ABA
:10035000032303AF6C6100F04BFA3A002D4B43CB03
:1003600043C21B68211C2800136000F0C7FA00215B
:10037000280000F0C1FA0024032602E0142001F056
:1003800083FAD0231B065B685B04F7D417A800F040
:1003900065F802F001FA204902F0BFF91F4902F0A6
:1003A000A8F9011C684600F007F9684600F01AF940
:1003B00007A800F08BF90FA800F088F9184907A8E2
:1003C00000F0ECF9002809D115490FA800F0E6F972
:1003D000002811D1280000F035FBCFE7601C072171
:1003E00001F0C6FE28000C0000F086FA0C490FA8A8
:1003F00000F0D4F90028EDD0032301361E40B300ED
:100400002800F95800F07AFAE4E7C0460000B44248
:1004100000002050303400100000344300F07F45CD
:100420000000204110B502F097FD1F211A2000F0B6
:1004300093FC002200211A2000F0A8FC00211A20C1
:1004400000F0BEFCE022034BD2011B681340024ABD
:10045000136010BD00C0044000D00440042280217D
:100460001A4B10B5046A1A60194A490013680B4206
:10047000FCD0526863001A520F22631CD917090F6F
:100480005B1813405B1A4288036203889A188388BA
:100490009B18C288D3180289D21843899A18838975
:1004A0009B18C289D318028AD218438A9A18838A61
:1004B0009B18C28AD318028BD218438B9A18838B4D
:1004C000C08B9B18C018000980B210BD00E004402A
:1004D00000C00440F0B50600C6460800316000B513
:1004E000042100F039FC35681F2D36D82A4A2F0721
:1004F000944600227F0FBC00E3199B0063441A60FE
:100500009A60DA60254A1A618022D2005A6001227C
:100510001A602349706802F000F9224902F0E6F8F7
:10052000214902F0FAF8214902F0E3F802F056F905
:100530001F4BE4199C46A40000046444000CEB0724
:1005400027D4164B22685040802252019446034023
:100550006444236080BCB846F0BD6A07920F170060
:1005600093009B180C4A00219446A0200837BC0039
:10057000E2199B0092006244634419509160D1607B
:10058000064911618021A422C9009950A33A1A504A
:10059000BFE7084B0004D5E700000540FFFF00005F
:1005A0001CC731410000FA4300FF7F4700409C46D2
:1005B0000C0005400000FFFF70B50C1C0500002179
:1005C000201C02F0D9F8002808D10549201C02F0AF
:1005D000D9F8002800D0024CAC6070BD0024FBE7C5
:1005E0000000344370B545680400291C806802F09F
:1005F0007AF81B4902F091F8291C02F077F81949A2
:10060000606002F08AF8184902F070F8174902F0A9
:1006100084F8174902F06DF802F0E0F821681F290C
:1006200015D80A07520F93009B18124A9B00944654
:1006300000046344000CCA070ED40F4A19684840EE
:10064000802149018C46024063441A6070BD4B070B
:100650009B0F08331A00E6E7084A0004EEE7C0469D
:10066000CDCC4C3D1CC731410000FA4300FF7F4711
:1006700000409C460C000540FFFF00000000FFFF0B
:1006800000234260002201608360C3600361426115
:100690000383C3617047C04670B50125040000683C
:1006A00000F0A2FB2B002268D0269340360673622E
:1006B000606800F099FB2B0062689340B362236886
:1006C0009D400023B561A36070BDC04670B50400B5
:1006D0002E4B986AA368022B38D010DC002B2AD04E
:1006E000012B0BD1E268821A092A07D922689340AC
:1006F000D022120693610223E060A36070BD032B39
:10070000FCD1D02301251B065A682B006168160016
:100710008B401E401A4232D12369C01A02F037F8CA
:100720001B4901F0FAFFFC21890501F0F6FF258342
:100730006061A660E2E723760123190022689140F8
:10074000D02212065161E060A360D7E7D0231B06D8
:100750005A68012361688B401A420CD1E368C01AC1
:100760000C4B9842CAD90C4B63610223FF3323839D
:100770000023A360C2E703232061A360BEE72369CF
:10078000C01A044B9842EED8B8E7C0460040054076
:10079000287E0C3D30750000000080BFF8B5057E56
:1007A00004000E1C002D02D0437E002B02D0002539
:1007B0002800F8BD01F012F9002913D0FA22002315
:1007C000920001F013FD07006069311C01F0DAFFAF
:1007D0000028ECD1FA22E3695200FB1A9342E6D3D7
:1007E000E761E5E7FA21890001F0C2FC0700EBE7C9
:1007F000F0B5C646050000B5080082B0AA602960C1
:10080000EB60384902F0C4FB00232C68AE686B60D3
:100810000125354B0700E118090D06313000C9B23A
:1008200000F09AFA0095B540012332000021200023
:1008300002F0CCFC2B0000220021200002F022FC60
:100840002B002A000021200002F06EFC00233A0059
:100850000021200002F018FD052001F07FFA01F0D0
:1008600096FF224901F045FFEC21890501F03EFF8A
:10087000804601F0B3FF85B20023002D0ED0280082
:1008800001F085FF011C404601F02DFF8721C905BD
:1008900001F043FF01F0A2FFC3B21B02F81C144A8F
:1008A000FF01000338431040F822B602D20116407F
:1008B0008022920516432D0480221D43C823520234
:1008C000E550E2500B4A0833E2500122043BE0506D
:1008D0001033E65023681343236002B080BCB8464F
:1008E000F0BDC0465C3400100000E0AF0050C34AC9
:1008F000FFFFFF9F00000E400161704770B50C1CA8
:1009000005000021201C01F037FF00280AD1FE213C
:10091000201C890501F036FF002801D0FE24A40523
:100920006C6170BD0024FBE7F0B5DE4657464E46CD
:100930004546E0B5C26885B093460290002A00D1D2
:100940007CE0826943680392D2B200924269012539
:1009500091461A0010329540002704339B0004682A
:1009600001935946380201F003FC009B9C46604409
:10097000C6B2542E3BD870003018C0B201F00CFF44
:100980008046B000301A0138C0B201F005FF0023E4
:100990009A46061C311C484601F0BFFE01F01EFFBE
:1009A0004146C6B2484601F0B8FE01F017FFC0B29A
:1009B0000002360451460643484601F0AEFE01F0FF
:1009C0000DFFC0B20643360263681D42FCD1019B95
:1009D00001371E515F45C4D1039B029A01339361D5
:1009E00005B0F0BCBB46B246A946A046F0BDA92E54
:1009F00010D8553EF6B2B000301A0138C0B201F03E
:100A0000CBFE804670003018C0B201F0C5FE002653
:100A10008246BFE75636F3B2984658004044C0B20B
:100A200001F0BAFE4346061C9800181A0138C0B2FD
:100A300001F0B2FE002382469846ABE78369039338
:100A4000CAE7C046F8B54546DE4657464E460369F6
:100A5000E0B50500062B05D8BA4A9B00D3589F463F
:100A6000FFF762FFF0BCBB46B246A946A046F8BD00
:100A700000F0B4FF002900D15EE1FA2200239200C9
:100A800001F0B4FBEB69C31AFA2B00D94DE1202326
:100A9000EB5C002B00D120E16F690021381C01F0D4
:100AA0003CFE01F09BFEA849C6B2381C01F035FEA1
:100AB00001F094FEC0B2330404021C433443EE68D8
:100AC000002ECFD024CD2B000121103399400020DF
:100AD00004352402AD0053681942FCD10130AC50FA
:100AE0008642F8D1BEE79949406A01F0FFFD984976
:100AF000041C01F047FE002800D0EAE06C62201CD4
:100B000001F078FEFE21890501F0F0FDFC21890548
:100B100001F003FE8C4901F000FE01F05FFEC0B25F
:100B200001F03AFE696901F0F8FD01F057FEC0B22C
:100B300004040302EE681C430443002E92D024CD2B
:100B40002B00012110339940002004352402AD0010
:100B500053681942FCD10130AC508642F8D181E78C
:100B600047690021381C01F0D8FD01F037FE7649B5
:100B7000C6B2381C01F0D1FD01F030FEC0B2330422
:100B800004021C433443EE68002E00D16AE724CDF2
:100B90002B00012110339940002004352402AD00C0
:100BA00053681942FCD10130AC50B042F8D159E73A
:100BB00047690021381C01F0B0FD01F00FFE6249C9
:100BC000C6B2381C01F0A9FD01F008FEC0B2330224
:100BD00004041C433443EE68002E00D142E724CDC8
:100BE0002B00012110339940002004352402AD0070
:100BF00053681942FCD10130AC508642F8D131E73C
:100C000046690021301C01F088FD01F0E7FDC0B20B
:100C1000040400024C490443301C01F07EFD01F045
:100C2000DDFDEE68C0B20443002E00D11AE724CDEA
:100C30002B00012110339940002004352402AD001F
:100C400053681942FCD10130AC508642F8D109E713
:100C5000C368002B00D105E700239846013399466D
:100C600002F05CFB6B6996219B4601F059FA143146
:100C7000C8B201F091FD594601F04FFD01F0AEFD03
:100C80003149C6B2584601F048FD01F0A7FDC0B297
:100C900003029A460021584601F03FFD01F09EFDF7
:100CA00053466F68C0B218433B004A4610339A401F
:100CB000360406432C68360263681A42FCD10123CD
:100CC0009C460437EB68BF00E0443E514345C7D81B
:100CD000C8E600231F486B6224E76E690021301CC0
:100CE00001F01BFD01F07AFDC0B2040400021649B8
:100CF0000443301C01F011FD01F070FDEE68C0B23C
:100D00000443002E00D1ADE624CD2B000121103389
:100D10009940002004352402AD0053681942FCD1EB
:100D20000130AC508642F8D19CE620220121E861D6
:100D3000AB5C4B40AB54ACE6FA21890001F018FAE9
:100D4000A0E6C0464034001000007F43CDCC4C3DAF
:100D5000C3F5C8400000FE4210B54024084A830095
:100D60009A181268C0005440C0222240054CA44684
:100D700063441A60044B9C466044416010BDC04609
:100D800004C0014004D00140004001400B4B8000F2
:100D90009C46604400290ED100230431002A00D172
:100DA0001900802203685201594094460C23604484
:100DB0000B40036070470C210823EFE704C001409B
:100DC0008000002905D0064B9C4640236044036008
:100DD0007047044B9C46402360440360F8E7C046DC
:100DE00004E0014004F001400123D022834040216F
:100DF000120693629361094A83009A181268C00030
:100E00005140C0220A4006498C4663441A60054B93
:100E10009C460523604443607047C04604C00140BF
:100E200004D00140004001400FB400B5084883B031
:100E300001F082FF049B002B07D005A91800019147
:100E400001F0FAFD034801F077FF012001F00CFEEC
:100E50006C3400107C340010EFF3108072B6034A3B
:100E60001368002BFCD0BFF35F8F70472C0100D0BC
:100E7000BFF35F8F0022024B1A6080F31088704727
:100E80002C0100D070B5EFF3108C72B60D4D2B68AD
:100E9000002BFCD0BFF35F8F0724CB08C618C05CC3
:100EA00001230C40A3401C000440034207D103432C
:100EB0003370BFF35F8F2C608CF3108870BD10000F
:100EC000FFF7B2FF2C0100D0044A1078431CDBB2BC
:100ED000172B00D9102313707047C04698010020CB
:100EE0000021044B044ABFF35F8F02C39342FAD13F
:100EF0007047C046000100D0800100D0054B064A73
:100F00001360064A136053609360D36013615361AA
:100F1000936170478080808000E400E004E400E09A
:100F20001F2318401E3B8340002905D0C021044ADE
:100F30004900535013607047802201498B50FAE7F3
:100F400000E100E070B50D00EFF3108672B60F4AB5
:100F50001368002BFCD0BFF35F8F0D4B10309B68E4
:100F600084001B590B4A934203D09D4201D000F0EC
:100F70009BFF074B9B681D51BFF35F8FBFF35F8FD4
:100F80000022024B1A6086F3108870BD240100D045
:100F900000ED00E0C1010010F0B5DE4657464E46B8
:100FA0004546E0B50C0083B0EFF3108972B65F4A96
:100FB0001368002BFCD0BFF35F8F5D4B9A68030072
:100FC00010339F00D5595B4A904695423DD0A542CB
:100FD0004ED0594EAA1B2F2A37D8584A934612682A
:100FE0009446012261469246824011401F221040E1
:100FF0005246824092460191802251465846815085
:10100000BFF35F8FEFF305829346002A32D10123AD
:101010002A009A439068844208D17CE04B005B1818
:101020009B00F318986884422ED01A00062151566E
:101030000029F3DA84424DD0019B002B1FD0C0223F
:1010400051463E4B520099501960394B9B68DD5117
:10105000BFF35F8FBFF35F8F0022344B1A6089F3B9
:10106000108803B0F0BCBB46B246A946A046F0BD0E
:101070001500EAE79342CAD000F016FFC7E78023C5
:1010800051462E4AD150E0E706215956002922DB6D
:101090004A005018800034188046A0689860E079B3
:1010A000D871062020569871002825DBA488F01AF4
:1010B0006405241544440019E0240005400D240271
:1010C0002043988052181E4B9200B6181A78197057
:1010D000B271B1E71300594600290FD1FF31917168
:1010E0001849918016490A789A71174A9B1B5B41EF
:1010F0005A43120D0A709FE71448E2E7144A154953
:10110000D21A083A5002400D014399801249520800
:101110000A43DA8090E70621515613000029B7DA16
:101120005A46002AEAD14546DCE7C046240100D0F1
:1011300000ED00E0C10100109C01002000E100E092
:10114000740A002001BDFFFFAAAA000001BD000033
:10115000D601002000F0FFFF00F8FFFF70B501246A
:101160000443EFF30581EFF3108C72B6214A136844
:10117000002BFCD0BFF35F8F1F4B05001F4AED1AF9
:101180006D416A43120D1E4D8900AE6852B2765809
:10119000A6421CD00621595691421CD01221595604
:1011A000914222D01E215956914220D02A215956CF
:1011B0000324914210D0134B19781A708171BFF338
:1011C0005F8F00220B4B1A608CF3108870BDAB68E8
:1011D0000D4C5C50EFE700246100091989005B1891
:1011E000FF21997109499980E5E70124F4E7022478
:1011F000F2E7C046240100D09C010020AAAA00000A
:1012000000ED00E0740A0020C101001001BDFFFFE5
:10121000024B9C46614489000160704740000034E5
:10122000F8B5134D134E2C00FF27B5421ED223688C
:10123000002B0FD0FFF748FE01002800FFF7E8FF62
:10124000A780BFF35F8F0834B4420FD22368250014
:10125000002BEFD1FFF738FE01002800FFF7D8FF81
:101260002771BFF35F8F0834B442EFD3F8BDC04697
:1012700068060020700600200A4B1968EFF3108002
:1012800072B60A68002AFCD0BFF35F8F1B68BFF3F9
:101290005F8F00221A6080F3108840BF0020002179
:1012A0007047C046680A0020F0B5DE4657464E46F5
:1012B0004546E0B585B0EFF30582032313409A005D
:1012C00011000392B64A5258904601229A40914624
:1012D000B44B1A604B46B4484363434608229B5EB6
:1012E0009A46002B3DDA43469B881BB2002B00DB5D
:1012F000A1E043469B79002B00D0F3E0434608244D
:101300001C5F002C23DB42465269630094461B1984
:10131000DB0063449C68DD68631C00D10FE1A248D8
:10132000039984466144826A0B69A61A9B1A9E42FD
:1013300015D34A46036A1A4211D09B4800F046FB77
:10134000241A8D41002D02DCC4D1002CC2D040BF34
:1013500005B0F0BCBB46B246A946A046F0BD0C6144
:10136000EBE7424652695B0093465344DB009B44E3
:101370005B469E68DF6800F029FB801BB9410029AD
:10138000B1DB002F00DAE5E05B46884A1B69934237
:1013900000D1D8E041465A460820085E5288000431
:1013A00010435A465169984704000D0023002B430F
:1013B00000D1CFE0002D00DBE8E0361BAF41340068
:1013C0003D005B469C60DD600021595E002900DA2B
:1013D00089E743465B6922009C462B004800401881
:1013E000C00060448668C768921BBB41002B00DACE
:1013F00079E74346664602000094019519810CE0A6
:101400007B00DB19DB00F318009801999C68DD680C
:10141000001BA941002904DB1A000023D75E002F1E
:10142000EEDA5B461F805346138043469B881BB20F
:10143000002B00DA5DE743461A69EFF3108172B6BC
:101440001368002BFCD0BFF35F8F43469B88424656
:101450001BB29A4601235B4293801369BFF35F8FEF
:1014600000221A6081F310885346002B00DA40E70F
:1014700043465B699C46082343449B4653465F00B2
:1014800043465744FF0008229A5E67445E46BC68A4
:10149000FD68002A19DB3B000094019567469C46D5
:1014A00004E01E000023F25E002A0BDB0098019985
:1014B00053009B18DB00FB189C68DD68001BA941EA
:1014C0000029EEDA6346BC461F00534633800021F4
:1014D0007B5E3A809A46002BD0DA43469B79002BFC
:1014E00000D10BE70023424693714346464608214C
:1014F000595E08364B1C00D129E747468C46556992
:1015000002E006004B1C17D04B005B18DB00E8180C
:101510000A00E95E43881BB2002BF2DA01235B422A
:10152000DC178360C4606245ECD031803B8994460F
:1015300003803A814B1CE7D1B8466446E1E66B1C58
:1015400000D0ECE6F9E65B465C6920002369984729
:10155000002821D15B4642461B8813811269EFF3B4
:10156000108372B611680029FCD0BFF35F8F42462A
:10157000594652880A804246514651801269BFF34B
:101580005F8F0021116083F31088ACE6064800F0FD
:101590001DFA24184D4114E76568246806E7C04623
:1015A000540A00203C70054000400540A91200107C
:1015B00070B52E4C2569002D04D00A212C48FFF768
:1015C00027FE70BD2B4E0321300000F0F5F9E660D8
:1015D000FFF77AFC284B03229C46D02322701B067F
:1015E0001B6801216370254B6044A3600F238000BA
:1015F00020610220638063694942A1801980023121
:10160000198647311D83585218315A5275325C3948
:1016100099521832013199521832013199521832C7
:1016200001319952083518329D52023118329952BF
:101630001832013199521832013199521832013160
:1016400099521832013199521832013199520C4B8A
:101650000C49DC6001303562FFF774FC0121032086
:10166000FFF75EFC084B1D60A7E7C046E4010020C1
:10167000680A00200040054040000034FFFF1000D1
:10168000540A0020A91200103860054070B5C64603
:10169000010000B50469EFF3108C72B620680028D1
:1016A000FCD0BFF35F8F02200D5E48696C0080465E
:1016B0006419E4004444002D01DB20884880086957
:1016C000BFF35F8F002606608CF31088002D30DB9F
:1016D000E36063880598013320615B0406985B0C26
:1016E000A26060611A1C002B21D090B22B04628092
:1016F00018430A69EFF3108672B61368002BFCD00A
:10170000BFF35F8F8B8823808D800B69BFF35F8F62
:1017100000221A6086F310880B7801329A40CB6859
:1017200005498C4663441A6040BCB04670BD012236
:10173000DBE701204042F7E73C20000010B5438979
:101740000A14934233DD53009B184269DB00944630
:1017500004696344EFF3108C72B62268002AFCD04F
:10176000BFF35F8F5A88090494B2090C8A4208D0EB
:101770000369BFF35F8F00221A608CF3108800208A
:1017800010BD8022120214435C8001230269837120
:10179000BFF35F8F002111608CF310880549027838
:1017A0008C469340C268012062441360E8E7002041
:1017B000E6E7C0463C200000F0B504000D00062618
:1017C0007642F717C64636196F4100B582B08F4290
:1017D00014D811D000F002F932003B00121A8B41EC
:1017E000002B15DC002B44D02000290000F02AF942
:1017F00002B080BCB846F0BD8642EBD90026002777
:1018000000F0ECF832003B00121A8B41002BE9DDAE
:1018100000F0E4F832003B00121A8B41002B0ADB87
:1018200000230193144B3200009314483B00FFF750
:101830002DFF0028D8DBB0460026BC46104A114FC9
:101840007B6A9C4504D8B96A8845CDD99C45CBD1E3
:101850001168EFF3108072B60B68002BFCD0BFF359
:101860005F8F1368BFF35F8F1E6080F3108820BF07
:10187000E6E7002AB8D0CBE779120010E401002097
:10188000680A00200040054070B5060000F0A6F888
:10189000FA2204000D00002330000021920000F025
:1018A00005FF00196941002902DBFFF785FF70BDC4
:1018B000012001494042F8E7FFFFFF7FF0B5CE4627
:1018C000474680B504000D0083B0EFF30587002F75
:1018D0000DD0364A0020536A8B4203D3926A0130FE
:1018E000A24250D303B0C0BCB946B046F0BD304BA5
:1018F0009846DB689946434648461E7800F066F8ED
:101900000B00494602000436B600715820008E1ABA
:101910002900801A99418F4211DC0ED020BF234A42
:101920000020536AAB42DDD3926A0130A242D9D281
:10193000E81A421E9041C0B2D4E78642EED900F0C8
:101940004DF822002B00121A8B41002B20DB0023C4
:101950000193184B2200009340462B00FFF796FEA0
:10196000011E15DD114B2E005A6A95421CD89B6A48
:10197000A34217D34046FFF7E1FE0C4A0020536A0A
:101980009E42AFD8D0E7581A421E9041C0B2A9E794
:10199000064A0020536AAB42A4D3926A0120A242B5
:1019A000A0D2C5E79542E5D120BFE3E7004005405E
:1019B000E40100207912001010B5024A0248FFF736
:1019C00061FA10BD803400101C0A00200300416A37
:1019D0000A00986A596A8A42FAD17047034B596AD9
:1019E0000A00986A596A9142FAD17047004005404E
:1019F00070B504000D00124A536A1900966A536AC2
:101A00008B42FAD13000190024184D41AB4211D855
:101A10000ED02B000A494A6A9A42FCD307D1084AE1
:101A200002E0516A994202D1916AA142F9D370BD94
:101A3000A642EED9012301246442E5175B42E9E79F
:101A400000400540064A536A9942FCD807D1044B2E
:101A500002E05A6A914202D19A6A8242F9D37047EF
:101A600000400540F8B5040006200D0000F076F9AE
:101A7000002842D0364B3749E21853425A4180235E
:101A8000DB039C469205344B62441A60334B1A6068
:101A900010000B689843FBD12D4B8021E3185A426C
:101AA00053412F4A5B0049009952062000F056F935
:101AB0002900C00000F05CFB0130C3091ED14027A3
:101AC00001226262A362266BF30722D4E36A254BEC
:101AD0000620E51800232B60266300F03FF939004B
:101AE000800000F045FB7022E36A5A407E231340D9
:101AF0002B601D4B23630323A364F8BD1B4A934251
:101B00001ED900231A4A1B4F6262A362266BF30799
:101B1000DCD5194B144AE3181A60656AA26A0620DC
:101B2000AD01AD1800F01AF9144900F021FBAD0227
:101B30000100280000F01CFB0021FFF759FFC5E75A
:101B40004006800E9F011A003F180300B9E7C04607
:101B50000080FCBF08C0004000E0004000F00040F2
:101B60006C0A00202C10000001030000FEFF0000A2
:101B7000FFFF0000C0FF3F00303000004E0E0000AD
:101B8000F8B5DE464E4657464546E0B58B4605005D
:101B90000A991800160000F0EBFA0A9B6C001F026D
:101BA000324B64199C46A4006444636881469F429A
:101BB00000D967602B1FDBB29846012B30D9C023B8
:101BC00080229B01E31812011A60294BAD0059597C
:101BD0009A4600291BD1226876017240E0268023B4
:101BE000164042465B01E3181E60012A30D980236B
:101BF00080229B01E31812011A6053464A4667602F
:101C00005A51F0BCBB46B246A946A046F8BD586939
:101C100000F0AEFA431C5800C0180338FDD2DAE7D2
:101C20005B46012BCBD1C02303229B01E3181A6032
:101C3000023AA3681A42FCD0E0232268760156409B
:101C40001E4080230A4A5B019246E3181E60AD00E5
:101C50005A462168514003220A401A6001225B461D
:101C60009A40A3681A42FCD0C1E7C04600800040F9
:101C7000200A0020F0B546464F46D646C0B51F00A4
:101C8000344B44009C462418A4006444636888468E
:101C90001600FF2B02D880235B006360031FDBB2BA
:101CA0009A46012B30D9C02380229B01E3181201F0
:101CB0001A60294B85005959994600291BD1226881
:101CC00076017240E0268023164052465B01E318FD
:101CD0001E60012A30D9802380229B01E318120163
:101CE0001A6080235B0063604B465F51E0BCBA46DC
:101CF000B146A846F0BD586900F03AFA431C5800B6
:101D0000C0180338FDD2DAE74346012BCBD1C023FC
:101D100003229B01E3181A60023AA3681A42FCD01E
:101D2000E0232268760156401E4080230A4A5B0168
:101D30009146E3181E608500424621685140032207
:101D40000A401A60012342469340A2681342FCD025
:101D5000C1E7C04600800040200A0020014B8000FF
:101D6000C0587047200A0020F8B5040020481D0024
:101D700017000E0000F0FCF90100380000F0F8F93F
:101D8000069B29041B0319432368002B1EDB194BF8
:101D9000194DE21853425A4180235B019C461203BD
:101DA000164B62441A60164B1A6017002B689F434B
:101DB000FBD1144B2660E2182123A0601360236836
:101DC000002BFCDA0823E1601360F8BD3F23226892
:101DD0001340B342DBD1A3681B051B0D8342D6D150
:101DE000EE22E368D20213408B42D0D1EDE7C04629
:101DF000001BB7000040FDBF08C0004000E00040ED
:101E000000F00040043000008023024A9B000B4396
:101E1000D362704700800540142310B50100188874
:101E200004331B88984710BD162310B5010018888D
:101E300002331B88984710BDF8B54746CE4680B59B
:101E40000F1E19D0142399460433040000250126DF
:101E500098464B461888434621681B88984701C41A
:101E6000431E9841013540420640AF42F1D1300057
:101E7000C0BCB946B046F8BD0126F8E7AA23064A19
:101E80001B0113608D235B00D3600449044B196070
:101E90005368002BFCDA70470040024000B0FA00A3
:101EA000006002407047C04610B50148FEF7BCFF15
:101EB000A434001070B5074D074EB54209D2002476
:101EC000013E761BB60808CD984723000134B34283
:101ED000F9D170BDF03300102C340010054B064AC8
:101EE00006491A60064A074B1A6010000B689843AF
:101EF000FBD1704700E00040BFCDFBFE08C00040B2
:101F0000FE7F3C0000F00040044BDB6C002B03D153
:101F10008022034BD2021A607047C0460000115065
:101F20004C201150044A054B1A60054A1368DB0126
:101F30008033FBD17047C046FFFFFF0100F0004037
:101F400008C000404022034B9A675A671A67DA6656
:101F50007047C04600F0014010B5FEF7C1FF10BD4C
:101F6000F8B52D492D4C2E4D641AA6103200302E96
:101F700000D930222800920000F050FDBC2C41D83E
:101F80000123711C08009C46264A30293DD92F2781
:101F90002C196407E30FBF1B052F19D9302917D857
:101FA000002B36D0B1006A506146CC1AF3189B0062
:101FB0006108EB18C900C9181A605A6008338B42CF
:101FC000FAD101232100994346188C421AD0711C82
:101FD000B300EA50302915D089006A50B31C2E2E68
:101FE00010D09B00EA50F31C2D2E0BD09B00EA5022
:101FF000331D2C2E06D09B00EA50731D2B2E01D0D2
:102000009B00EA50084B9D60F8BD2F339B1B9C46FC
:10201000BDE73000C8E7C04600010010C001001055
:1020200000000020C101001000ED00E0002310B509
:10203000294C82B0A367FFF721FF0122274B1A60CA
:10204000636C012BFCD10322254B1A60224A936B4F
:10205000012BFCD1013300930121224A2248043391
:10206000FFF782FE052301210093204A2048FFF755
:102070007BFE0022022104201E4BFFF7FBFD002205
:10208000012105201C4BFFF7F5FD00220021072050
:102090001A4BFFF7EFFD002200210820174BFFF736
:1020A000E9FD8023DB000093002200210920134B6F
:1020B000FFF766FD0022104B00210620FFF7DAFD36
:1020C0000420FFF74BFE0E4900F052F801000020FB
:1020D000FFF79AFE02B010BD008000403CB0004007
:1020E00030B00040002F685900800240008C8647C5
:1020F00000C00240001BB70040597307006CDC02AF
:1021000040420F0001480421014B18470002002003
:10211000391E0010014B9B68184700000002002088
:10212000124A936F9B0815D29066D166002905D09C
:10213000FFE7FFE7FFE7516F106F704704B580219D
:102140000906C2175140002800D0C84301F040F9E9
:10215000002104BDF0B5146E556E576F166FFFF772
:10216000E3FF1466556657671667F0BD000000D0A0
:10217000114A936F9B0813D210665166002905D04F
:10218000FFE7FFE7FFE7516F106F704704B50028C6
:1021900001D00020C04301F01BF9002104BDC0465E
:1021A000F0B5146E556E576F166FFFF7E5FF1466A6
:1021B000556657671667F0BD000000D094464A4A3E
:1021C000926F9208624601D228E0C046F0B5464EB2
:1021D000346E756E776F366F00F020F89446424A81
:1021E00014665566576716676246F0BD94463E4AC8
:1021F000926F9208624601D254E0C046F0B53A4E62
:10220000346E756E776F366F00F04CF89446364A30
:1022100014665566576716676246F0BD002B24DBCF
:1022200011D000293EDA00B5C943404200D1013146
:1022300000F038F8C943404200D10131DB4352423B
:1022400000D1013300BD002AEBD1002801D10029C3
:1022500005D00020C90FC90701D1C043410800B50E
:1022600001F0AEF80022002300BD00B500290ADB12
:10227000DB43524200D1013300F014F8C94340421D
:1022800000D1013100BDC943404200D10131DB43DF
:10229000524200D1013300F005F8DB43524200D135
:1022A000013300BD002923D1002B18D1002A0CD006
:1022B000BC460D4F38667A6600210023FFE7FFE732
:1022C000FFE77A6F386F67467047002801D00748EC
:1022D000010000B501F074F80022002300BD0200E7
:1022E0000B00002000217047000000D0FFFFFFFF1F
:1022F000002B00D0BFE0130C28D1002AE7D080B417
:10230000114F39667A66FFE7FFE730B4040C7B6F44
:10231000396F1B0423433B667A66FFE7FFE7FFE75D
:10232000C04684B27B6F3D6F1B0423433B667A66D5
:10233000FFE7FFE7C04600232C042D0C7A6F386FAF
:1023400000196941B0BC7047000000D0F0B5944658
:102350000025140E01D112020835140F01D112010B
:102360000435940F01D192000235D40F01D15200EF
:102370000135D40B0134254F7C66254C3C660E0C90
:1023800093B2FFE7FFE7FFE73C6F6643360C770346
:10239000BE467343DF0B5B04C01AB941130C734391
:1023A000DB18C91ACE086643360CB64493B27343A1
:1023B0001F0F1B01C01AB941130C73431F0B1B05E0
:1023C000C01AB941860D8F023E436643360C092D73
:1023D00024DB520A7243801A7703460A6643360C9E
:1023E00016235B1BDE40DF40BF1964466643821B39
:1023F0007046043506330100D940A840C01900D307
:102400000131A24206D20023F0BD0000000000D03E
:10241000FFFFFFFF121B0130F3D3F1E709277F1BFA
:10242000FE406446A2B27243801A00D20139220CE7
:102430007243130C1204821A99410B007046043542
:1024400013370100F940A840801900D30131002B57
:1024500002D1A2420AD2F0BD013000D30131121BD9
:10246000FAD2013BF8D1A24200D2F0BD013000D334
:102470000131121BF7E7F0B51C0C00D080E00CB462
:1024800000251C0A04D11B02160E33431202083524
:102490001C0B04D11B01160F3343120104359C0B96
:1024A00004D19B00960F334392000235DC0B02D11E
:1024B00092185B4101351C00971864410134464F66
:1024C0007C66464C3C660E0CFFE7FFE7FFE7C04624
:1024D0003C6F6643360C7703BE4697B27743C01B0A
:1024E00000D20139C01B00D201399FB27743C91B0A
:1024F000C91B170C77437E04FF0B801BB941CE0824
:102500006643360C0C2D33DBB644120B1F053A43E1
:102510001B0B97B27743C01B00D201399FB27743A0
:10252000C91B170C77433E043F0C801BB941860D35
:102530008F023E43664329277F1BFE400C3D7746B2
:10254000AF40BF1930BCA2B2ABB272437343801A22
:102550009941220C7243130C1204801A9941020013
:102560000B000137001BA941F9D2781E0021F0BDF4
:102570000C277F1BFE4077467F0BAF40FF19E0E73B
:1025800000245D1C07D0144F7D663966FFE7FFE726
:10259000FFE7FFE73C6F95B29EB265436643401B81
:1025A000B141150C1E0C6543664336042F0C3E43A7
:1025B0002D04401BB141994204D202000B002000BF
:1025C0000021F0BD01D19042F7D3801A9941013426
:1025D0009942F2D3F6E70000000000D0FFFFFFFFB2
:1025E000132370B51D78012D19D014DD1E48FFF797
:1025F0001BFC06001D48FFF717FC1D4C8022310014
:10260000200000F00BFA022D06D01A48FFF704FC58
:10261000194B186070BD164C184BA364F5E7174BA7
:10262000134C23606360A360E36023616361A36173
:10263000E36123626362A362E36223636363A36370
:10264000E36323646364A364E36423656365A36550
:10265000E36523666366A366E36623676367A36730
:10266000E367A364D1E7C04653440000534600002B
:10267000F00700204C330000640A0020812600107F
:1026800007B5604601880A0A0230DF2AFAD1C9B2CA
:10269000820804D3028840880004104300E00068E8
:1026A000014A5050039007BDF007002051434343B7
:1026B000C9188C46110C83B24B4310B4040C61430F
:1026C00092B280B2504362431C041B0C001910BC30
:1026D00059411304120CC018514161447047000065
:1026E0004840414048400E4B5B6818470C4B1B6804
:1026F00018470C4A936F9B0802D2094BDB681847B6
:10270000F0B5146E556E576F166FFFF7F6FF054A5A
:102710001466556657671667F0BD014B9B681847EE
:10272000F0080020000000D007B548404140484074
:1027300001E0C04607B54200120E03D0FF2A03D1C4
:10274000420218D8C00DC0054A00120E03D0FF2A5D
:1027500003D14A020FD8C90DC9050122414005D451
:10276000414001D5814207BD884207BD0143491858
:1027700001D0C043001807BD00B5FFF7DBFF804163
:1027800000BDC04600B5FFF7CFFF804100BD491A2C
:10279000002807D108467047C10FC90700D540423D
:1027A000002817D0F44603B40B4B1B68984706BCAF
:1027B00081409E384042803107D20B0607D0490045
:1027C000490AC0051043084360470130F8E7490A49
:1027D0008902F5E770470000640A0020014B5B6A3C
:1027E00018470000F0080020014B1B6B1847000041
:1027F000F00800204100090E862902DA044B1B6C08
:102800001847044900B500F0DFF802BC8E46F5E732
:10281000F0080020DB0FC940132310B512481C78C4
:10282000FFF702FB0100012C0AD003DD80220F48D4
:1028300000F0F4F80E48FFF7EFFA0E4B186010BDE9
:102840000A4C5422200000F0E9F80B4B6365A365A5
:10285000E36523666366A366E36623676367A3672E
:10286000E3672362E361E5E753460000F0080020D8
:102870004C330000640A0020D5290010F8B5454605
:1028800057464E46DE46E0B5FF268846C50DC90DC3
:1028900035401700041C0E40002A01D000231360AD
:1028A000FF2D60D0002E5ED0002D5FD0201CFF2EAB
:1028B00053D0731EAB4250DCE20F944680221204C8
:1028C00091466402640A1443424649465202520A3F
:1028D00011438946AB4251D06346002B58D00021AA
:1028E0006442AD1B002D5CDD4B460120D9114042F6
:1028F000FFF73EFC1D23834600219C462A000C2D39
:1029000000DD0C2258466312944043436046A246C1
:10291000801A03414C465046914001335B105C43A2
:102920005918041BAD1A002DE8DCA14537DC4B46D5
:10293000E41AA14546DCE41A023163004B4519DC78
:1029400016D04346002B00DA4942002F00D03960F0
:1029500096212000891BFFF747FFF0BCBB46B2461B
:10296000A946A046F8BDFF20C005F6E70020F4E721
:10297000CB07E6D54B460131E41AE2E78C42ECDDA9
:102980006346002B13D14B002E000121E41AD8E737
:10299000AD1B002DA8DC8C4211DA0021CDE7002C04
:1029A000CBDA4B46E41808D54C440239C5E74B0056
:1029B00001212E001C1B4942C3E70139BDE74B46EC
:1029C0000021E41A0131B8E710B50022FFF756FFE5
:1029D00010BDC04607B5604601880A0A0230DF2AEA
:1029E000FAD1C9B2820804D3028840880004104397
:1029F00000E00068014A5050039007BDF008002035
:102A000001480421014B184710020020391E001014
:102A1000014B1B681847000010020020014B5B6847
:102A2000184700001002002010B5002800D110BD8A
:102A300000F036F9FBE7C04610B5094A03001468F8
:102A400084B0002C08D0012200910648524203A90C
:102A5000A047012004B010BD00F06EF90020F9E796
:102A6000500A0020292A001000BEFDE710B5FFF72C
:102A7000FBFFC04670B5FFF71DFA074D074EB54284
:102A800009D20024013E761BB60808CD98472300E2
:102A90000134B342F9D170BD2C3400103034001031
:102AA000030010B5080011001B68984710BDC04610
:102AB000F0B546464F46D646C0B5437D80460E002B
:102AC0001700002B46D0002A3FDD4B1E9946244BB1
:102AD0000125002400209A460DE04B461B5D0D3B6E
:102AE0005A425341325DDBB20A2A0BD02B0001342B
:102AF00001359F421ADD002CEFD14346325D1B7D2C
:102B00000A2AF3D1002BF1D1A04204DA4346211A5C
:102B10001B6830189847434650461B680221984767
:102B2000013428002B0001359F42E4DC874204DD9C
:102B30004346391A1B6830189847F619013E337816
:102B40000D3B5A42534142461375E0BCBA46B1466A
:102B5000A846F0BD0368110030009847F5E7C0466D
:102B600050350010F0B5DE4657464E464546E0B5B6
:102B700085B017001C0006000D00FEF72FFF002394
:102B8000314A12184B41002B59DB304908008A4664
:102B900000F026FC01906B1C03D1300000F0D8FB44
:102BA0000500002C26D12A4B98462A4B1C68002C85
:102BB00015D0002F21D1284F02E02469002C0ED01F
:102BC0002368002BF9D03B68002B01D0A342F4D13D
:102BD00020002A003100C0472469002CF0D1019B5D
:102BE000002B28D1280005B0F0BCBB46B246A94650
:102BF000A046F0BD194B9846D7E7174B994602AB54
:102C0000DF1D0A239B4602E02469002CE7D02368DD
:102C1000002BF9D04B461B68002B01D0A342F3D107
:102C20002A0031002000C0475B4601223900200005
:102C30003B70C047E8E7504600F0BAFBD2E70122FC
:102C4000074B5242A1E7C04640420F0068060020F1
:102C5000A12A0010480A00204C0A0020B12A0010C6
:102C6000FFFFFF7F0A4A1368002B05D10CE01A0012
:102C70001B691032002B07D09842F8D1002902D1ED
:102C800003691360016170470029FCD01060FAE706
:102C9000480A002010B500F037F9012010BDC046E9
:102CA000F0B5CE46474680B583B06B460600DD1DC5
:102CB0002870FEF793FE00231A4A12184B41002B8E
:102CC0002BDB19490800884600F08AFB174B814628
:102CD0001C68002C14D0164F02E02469002C0FD081
:102CE0002368002BF9D03B68002B01D0A342F4D11C
:102CF000200001222900FFF7DBFE2469002CEFD120
:102D00004B46002B05D1300003B0C0BCB946B046DD
:102D1000F0BD404600F04CFBF5E70122054B524266
:102D2000CFE7C04640420F0068060020480A002056
:102D30004C0A0020FFFFFF7F70B5040000F008FB85
:102D400001230100050001222000FFF70BFF084BC3
:102D50001C68002C06D06368002B05D098472469B6
:102D6000002CF8D1280070BD2469002CF3D1F9E7BC
:102D7000480A0020F0B50D1E15DD0E4B0D271A6810
:102D80000D4B4519D31859424B410C495B005E5E0F
:102D900020210478A64207D093691942FCD1013062
:102DA0001460A842F5D1F0BD93691942FCD11760B7
:102DB000F2E7C046700A00200080FCBF6C0A0020C9
:102DC00030B504000D1E24DD002010211A4B013CFB
:102DD0001A689369194217D1013093691942FCD1DD
:102DE000136823548542F4D1144B1B68002B0AD07E
:102DF00050239363516B183B0B4011498C4662443E
:102E00001360002814D030BD0C4B1B68002BEFD191
:102E1000F7E70A4B1B68002B0AD05022064B1B68B1
:102E20009A63596B183A0A4005498C4663441A6004
:102E300003204042E7E7C046700A0020140A002041
:102E400034100000064B10B51B68002B06D0002183
:102E5000044A12689163044A1068984710BDC0463E
:102E6000140A0020700A0020180A00200822034BD0
:102E700019688B691A42FCD17047C046700A00205D
:102E800070B51B4E1B4B32680500D31858424341A6
:102E900014331C00002D04D0174B1A68002A11D0DF
:102EA00070BD154E3368002BFAD0002120009563C9
:102EB000FEF736F820001149FEF76EF8104B35602A
:102EC0001D60EDE71D600E4B200019600B49FEF7F9
:102ED00039F801212000FEF723F8502233689A6365
:102EE000596B183A0A4007498C4663441A60D7E781
:102EF000700A00200080FCBF140A0020452E00103C
:102F0000180A0020341000000D4B10B51B780D4B33
:102F10000D4C1B780D4B02211B780D4B00202360BC
:102F2000FDF71AFF02210120FDF716FFE1212068BD
:102F30004902FEF797FD01210648FFF793FE10BDF9
:102F4000B8350010BC350010700A0020C0350010E4
:102F5000004003402002002001230121084A1360A1
:102F6000084A1360084A080013689843FBD1074ACF
:102F700011608021490013680B42FCD07047C046A5
:102F800000E0004000F0004008C0004000C00440E5
:102F9000F0B5DE4645464E4657468846E0B583B016
:102FA000050005240190FDF757FF4246117914579B
:102FB000324A2B00944663441B0D9B009C46304ACA
:102FC0008146130093466246985801238B40009037
:102FD000013B002C33DB2022521A944222DCA34016
:102FE00018421FD142461268250092464246927905
:102FF0001E00002A3ED1002200290DD05746530062
:10300000FF5A7B0B00D17F19AB18019812339B003C
:1030100001321F508A42F1D35B466246009830432A
:10302000985001E0012464424846FDF721FF20004A
:1030300003B0F0BCBB46B246A946A046F0BD202472
:10304000641A0DD41E00A6402500064206D10AE0EF
:103050001E00A640009A2500164204D0013CF7D27B
:1030600009246442E0E743461B689A4643469B793D
:10307000002BC0D014246442D6E7C0460000E0AF65
:103080000C0A0020F0B5DE4657464E4645468B46B4
:10309000E0B51C0085B04B0003935B44DB00C51812
:1030A0002F00DC3716003A682B0000922A00CC3241
:1030B0001268029001921B4A944680226344920255
:1030C0001A60002C19D08023DB049A46012399460C
:1030D000E0231B029846D8352000FFF71BF8524624
:1030E000430113433B6033004A46C340134042460A
:1030F00013432B60631E1C40EED1029B03989C4639
:103100005844C00060440300009ADC331A60019BFD
:10311000CC30036005B0F0BCBB46B246A946A04621
:10312000F0BDC046CC300000F0B5DE4657464E46F6
:1031300045468B46E0B51C0085B04B0003935B44CD
:10314000DB00C5182F00DC3716003A682B00009210
:103150002A00CC321268029001921A4A94468022C8
:10316000634492021A60002C18D08023DB049A4634
:1031700001239946144BD83598462000FEF7CAFF24
:103180005246430113433B6033004A46C340134059
:10319000424613432B60631E1C40EED1029B0398F2
:1031A0009C465844C00060440300009ADC331A6017
:1031B000019BCC30036005B0F0BCBB46B246A946CB
:1031C000A046F0BDCC30000080E00000F0B54E46D7
:1031D0004546DE465746E0B583B089460CA90D78D2
:1031E00001901F2A48D84946490088464944C900E9
:1031F000461837003400DC373868CC348346206802
:10320000310082461E4880248446A40261440C603A
:10321000691E8D411F216D420D401A498C4665443F
:10322000052B0ED9A02149058C461F21D8366046B2
:10323000540104430532053B3C600A403560052BD0
:10324000F5D8414652019B0613434944019AC900EF
:1032500050180200DC3213600300D8331D605B4657
:1032600013605346CC300360002003B0F0BCBB4673
:10327000B246A946A046F0BD05204042F5E7C0464B
:10328000CC30000080E00000F0B501248C401D002F
:103290000368A34303604B005C18E4000419260094
:1032A000C836002D28D02F68DC343760AF6804366C
:1032B00077606F68ED6837602560164D5B18AC4627
:1032C0008025DB00C41864442D0625602560124C5F
:1032D0000D1D8C40846001242600AE4080250831FD
:1032E0008C401F21AD014519C0180A40D8302E600E
:1032F0002C6002600020F0BD80277F023760C0276D
:103300003F03B760F82704367F02DC34376025605E
:10331000D3E7C046D010000001010101094B10B5F0
:103320001C68094AA83420686168084BFFF7BEF999
:103330000122002380185941206061604800400844
:1033400010BDC046380200202D7F954C2DF45158F9
:1033500010B583070AD00300032102E001330B42BA
:1033600005D01A78002AF9D1181A10BD030019687F
:103370000C4A0D4C8A188A4322420FD15968094AD7
:1033800004338A188A43224208D15968054A043313
:103390008A188A432242F1D000E001331A78002AC9
:1033A000FBD1E1E7FFFEFEFE80808080F8B5C046DD
:1033B00001B40248844601BC604700BF5D010020A3
:1033C00001B40248844601BC604700BF850100206B
:1033D00001B40248844601BC604700BF850100205B
:1033E00001B40248844601BC604700BFC100002010
:1033F000DD1E0010091F001005210010012A001019
:10340000E1250010192800102D200010251F0010A4
:10341000451F0010591F001021120010611F0010DD
:10342000B1150010A51E0010FD0E0010B102001015
:103430000000803E0000003F0000403F0000803F51
:10344000600B0010B00B0010000C0010600A0010A0
:10345000500C0010700A0010E60A001064340010CE
:1034600004FF000021622311001442A40A2A2A2A20
:103470002050414E4943202A2A2A0A000A0000000F
:10348000486172647761726520616C61726D20259C
:103490006420616C726561647920636C61696D653B
:1034A0006400000048617264206173736572740087
:1034B00052656C6561736500626F6F74325F77325D
:1034C0003571303830000000322E322E30000000CE
:1034D0007069636F0000000066756C6C5F706963F3
:1034E0006F5F736D6172745F6C6967687400000070
:1034F0004A756E202032203230323600050052509C
:10350000DE65F468743B0010060052505422A29D00
:10351000F034001006005250861C0302D83400100C
:1035200006005250BBFF3CB6D0340010060052508B
:10353000ABB36053C834001006005250E182887F5C
:10354000B834001006005250D3F07542B034001069
:103550000D0A00005541525420737464696E0000D6
:1035600055415254207374646F7574005541525420
:1035700020737464696E202F207374646F757400F7
:103580000600525053B4F4A16C350010080052509C
:0C359000120000000800525092100000D1
:10359C00FC340010083500101435001020350010D4
:1035AC002C350010383500104435001080350010D3
:0835BC008C350010943500105D
:1035C400F0B5C646150000B504001E000268EFF30E
:1035D400108172B61368002BFCD0BFF35F8F0423F5
:1035E400E356002B2DDB2268BFF35F8F00201060B1
:1035F40081F31088D0221206127852B290469A4271
:1036040003D1002080BCB846F0BD00270BE023683E
:10361400BFF35F8F1F6081F310882800310000F032
:1036240033F80028EDD12268EFF3108172B61368E5
:10363400002BFCD0BFF35F8F23797F2BE7D9434660
:1036440002E0D0231B061B6823712368BFF35F8F3E
:1036540000221A6081F310880120D3E70268EFF397
:10366400108172B61368002BFCD0BFF35F8FFF2369
:1036740003710368BFF35F8F00221A6081F310881F
:1036840040BF70477047C04601B40248844601BC3D
:10369400604700BFBD1800101000000000000000CB
:1036A4000000010000000000000000000000020013
:1036B4000000000000000000000003000000000003
:1036C400000000000000FF000000000001B5486891
:1036D40001318E460047704609380149884701BDCB
:1036E4005D11001000000000000000000000000058
:1036F4000000000000000000700600200000000030
:10370400503300004C3300005433000052330000A7
:103714004D5300004D430000533400004334000077
:10372400752D00106D2E0010C12D0010812E00107B
:103734000000000000010000400200200000000022
:10374400000000002C05002094050020FC0500204A
:103754000000000000000000000000000000000065
:103764000000000000000000000000000000000055
:103774000000000000000000000000000000000045
:103784000000000000000000000000000000000035
:103794000000000000000000000000000000000025
:1037A4000000000000000000000000000000000015
:1037B4000000000000000000000000000000000005
:1037C40000000000000000000000000000000000F5
:1037D40000000000000000000000000000000000E5
:1037E40000000000000000000100000000000000D4
:1037F4000E33CDAB34126DE6ECDE05000B00000099
:1038040000000000000000000000000000000000B4
:1038140000000000000000000000000000000000A4
:103824000000000000000000000000000000000094
:103834000000000000000000000000000000000084
:04000005100001E9FD
:00000001FF
